{
  "contractName": "HashingWell",
  "abi": [
    {
      "anonymous": false,
      "inputs": [],
      "name": "DrainWishes",
      "type": "event"
    },
    {
      "anonymous": false,
      "inputs": [
        {
          "indexed": false,
          "internalType": "bytes32",
          "name": "wish",
          "type": "bytes32"
        }
      ],
      "name": "WishMade",
      "type": "event"
    },
    {
      "constant": false,
      "inputs": [
        {
          "internalType": "bytes32",
          "name": "_wish",
          "type": "bytes32"
        }
      ],
      "name": "hashWish",
      "outputs": [],
      "payable": false,
      "stateMutability": "nonpayable",
      "type": "function"
    },
    {
      "constant": false,
      "inputs": [],
      "name": "drainWishes",
      "outputs": [],
      "payable": false,
      "stateMutability": "nonpayable",
      "type": "function"
    }
  ],
  "bytecode": "0x608060405234801561001057600080fd5b50610107806100206000396000f3fe6080604052348015600f57600080fd5b506004361060325760003560e01c80633176cd20146037578063b458d26b146062575b600080fd5b606060048036036020811015604b57600080fd5b8101908080359060200190929190505050606a565b005b606860a4565b005b7f48860f4bb7970807c60ecfe51905502334503f66b72e860cea9d224329a3de96816040518082815260200191505060405180910390a150565b7f7d6bfe7a469f7eaeb73abaffa92968d4f11626bbb2cafb671dd79b753971365060405160405180910390a156fea265627a7a723158200487f4c55199581211c8bf1c4f19cfa3b40453041cc04dacb02409b4f2d40e7864736f6c63430005100032",
  "source": "// SPDX-License-Identifier: MIT\npragma solidity >=0.4.22 <0.9.0;\n\ncontract HashingWell {\n\n   event WishMade(bytes32 wish); \n   event DrainWishes();\n\n   function hashWish(bytes32 _wish) public {\n     emit WishMade(_wish);\n   }\n\n   function drainWishes() public {\n      emit DrainWishes();\n   }\n\n  }\n",
  "sourcePath": "/Users/juliacollins/Desktop/dec/contracts/HashingWell.sol",
  "compiler": {
    "name": "solc",
    "version": "0.5.16+commit.9c3226ce.Emscripten.clang"
  },
  "schemaVersion": "3.4.1",
  "updatedAt": "2021-07-24T18:18:33.870Z",
  "networkType": "ethereum",
  "devdoc": {
    "methods": {}
  },
  "userdoc": {
    "methods": {}
  }
}